:040000008A15E32A50
:10000800FF00030E83018316A3000A08A2008A01D9
:1000180070088312A1000C1C3928AD0A2D08023A79
:10002800031D3428AD012C08003A031D1F28013098
:100038008316D40021288316D40154088312AC00F7
:10004800FE300605F00083165408700483128600FB
:10005800A40A24083C3A031D342867278A01820130
:100068000C100B308F00DC308E000B1D46280B1156
:100078003D308100B20A3208143A031D4628B20105
:10008800FF30B4002108F000831622088A00230EEE
:080098008300FF0E7F0E09003A
:0E00A0008316031321088A002008820008003E
:1000AE00831203132230FC00F801F901FA01FB015F
:1000BE00FC0303198D280310FB0CFA0CF90CF80C39
:1000CE00F30CF20CF10CF00C031C5F28FC0303196B
:1000DE007F287408F80775080318750FF907760856
:1000EE000318760FFA0777080318770FFB076328B4
:1000FE007408F80775080318750FF90776080318C2
:0E010E00760FFA0777080318770FFB07080033
:10011C00A03083120313F0000F30F100F201F30151
:02012C000800C9
:10012E008316031398189D280000972853088312EE
:04013E00990008001C
:1001420083120313F801F9011030FC00710DF80D50
:10015200F90D7408F8027508031C750FF9020318EB
:10016200B9287408F80775080318750FF907031002
:0A017200F00DF10DFC0BA7280800AA
:10017C0083120313FB01FA01F901F801A001730DBD
:10018C00F80D7408F8027508031C750FF90276084F
:10019C00031C760FFA027708031C770FFB02000191
:1001AC00031C0130A002F30D0730FC00730DF80D99
:1001BC00F90DFA0DFB0DA00D7408731CF728F8024D
:1001CC007508031C750FF9027608031C760FFA02EA
:1001DC007708031C770FFB020001031C0130A002FF
:1001EC000829F80775080318750FF907760803181E
:1001FC00760FFA0777080318770FFB07000103182F
:10020C000130A007F30DFC0BDC28720DF80DF90D75
:10021C00FA0DFB0DA00D7408731C2629F802750845
:10022C00031C750FF9027608031C760FFA02770887
:10023C00031C770FFB020001031C0130A0023729BD
:10024C00F80775080318750FF90776080318760F69
:10025C00FA0777080318770FFB0700010318013022
:10026C00A007F20D0730FC00720DF80DF90DFA0D18
:10027C00FB0DA00D7408721C5529F8027508031C9F
:10028C00750FF9027608031C760FFA027708031C27
:10029C00770FFB020001031C0130A0026629F8074E
:1002AC0075080318750FF90776080318760FFA0707
:1002BC0077080318770FFB07000103180130A0071C
:1002CC00F20DFC0B3A29710DF80DF90DFA0DFB0D21
:1002DC00A00D7408721C8429F8027508031C750F94
:1002EC00F9027608031C760FFA027708031C770FC5
:1002FC00FB020001031C0130A0029529F8077508C8
:10030C000318750FF90776080318760FFA077708A4
:10031C000318770FFB07000103180130A007F10D3C
:10032C000730FC00710DF80DF90DFA0DFB0DA00D49
:10033C007408711CB329F8027508031C750FF902B7
:10034C007608031C760FFA027708031C770FFB0262
:10035C000001031C0130A002C429F807750803181A
:10036C00750FF90776080318760FFA077708031844
:10037C00770FFB07000103180130A007F10DFC0BF0
:10038C009829700DF80DF90DFA0DFB0DA00D7408E0
:10039C00711CE229F8027508031C750FF902760826
:1003AC00031C760FFA027708031C770FFB0200017F
:1003BC00031C0130A002F329F80775080318750F08
:1003CC00F90776080318760FFA0777080318770FE2
:1003DC00FB07000103180130A007F00D0730FC00EB
:1003EC00700DF80DF90DFA0DFB0DA00D7408701CB5
:1003FC00112AF8027508031C750FF9027608031C04
:10040C00760FFA027708031C770FFB020001031C1E
:10041C000130A002222AF80775080318750FF90796
:10042C0076080318760FFA0777080318770FFB077F
:10043C00000103180130A007F00DFC0BF629701811
:10044C00352A7408F80775080318750FF90776082C
:10045C000318760FFA0777080318770FFB070800C5
:10046C0083160313D303D3035308003C0318432A06
:10047C00D3030000000000003A2A00000000000036
:06048C0000000000080062
:10049200831203131A08F100981C512A1812181615
:0604A2007108F0000800E3
:1004A8008E20E830F4000330F500F601F7015720FC
:1004B80070088316CF007108D0007208D100730845
:1004C800D2004708F4004808F500F601F701BE20FD
:1004D80070088316CF007108D0007208D100730825
:1004E800D2007008F5007108F6007208F70073086A
:1004F800F800F80CF70CF60CF50CF813F80CF70CE0
:10050800F60CF50CF8137508F0007608F10077087A
:10051800F2007808F300F30CF20CF10CF00CF31372
:100528007008CB007108CC008E2083164908F400AF
:100538004A08F500F601F701572083164B08F90021
:100548004C08FA00FB01FC010330F8007908F400BC
:100558007A08F5007B08F6007C08F700780803198C
:10056800BC2AF40DF50DF60DF70D7410FF3EB32AF5
:10057800BE2070088316CF007108D0007208D10021
:100588007308D2000A30F4000030F5004B08F00080
:100598004C08F100A12070088316CB007108CC002C
:1005A80000307102031DDA2A033070020318DD2AB5
:1005B800312B83125608840083165208003C031D11
:1005C800EF2A5108003C031DEF2A5008003C031D88
:1005D800EF2A4F08003C03182E2B8312570880047B
:1005E80083164C080319082BCD01CE0100304E02AA
:1005F800031D002B4C084D020318082BD30136228B
:10060800CD0A0319CE0AFA2A4B08D30036228312E0
:100618005508800583164C080319222BCD01CE01FD
:1006280000304E02031D1A2B4C084D020318222BD2
:10063800D3013622CD0A0319CE0A142B4B08D30056
:1006480036220130CF02031CD002031CD102031C46
:0C065800D202E02A831255088005080039
:1006640083120313F8010830FC00700DF80D7408B0
:10067400F80203183F2BF8070310F00DFC0B372B7F
:0206840008006C
:1006860083160313C901C9014908353EF20049081A
:100696004707F00048080318013EF1007008A00063
:1006A6007108A10050208A110A12F0007208840015
:1006B600700880007208840000080319642BC90AB8
:0806C600472B3530F00008005D
:1006CE00831203137008F100F0010830FC0071086A
:1006DE00F40C0318762BFC0B6F2BF1010034031076
:1006EE007B2BF40C0318F107F10CF00CFC0B782BA0
:0206FE000800F2
:1007000083160313C901470884000008C80048087D
:10071000003A0319962B4808D30097208316C90A7C
:0E0720004908470784000008C800872B08001E
:0E072E000030831203138C1A0130F000080013
:10073C00831603131419AC2B1F301105F10071082B
:10074C00003A031DAC2B0130F000AD2BF00108007A
:0E075C008316031321088A002008820008007B
:10076A00831203132E088316C30083122F088316DD
:10077A00C400831230088316C50083123108831619
:10078A00C600C101C2014208123C031DCE2B41081A
:10079A008E3C031CD92B9E2370080319D52BD92B09
:1007AA00C10A0319C20AC82B12304202031DDF2BE9
:1007BA008F304102031CE42B7B30F000162C1114FD
:1007CA008316111C152C83122E082F0430043104B1
:1007DA000319142C83164308440445044604031DD4
:1007EA000B2C83126F08840005308000840A6D0880
:1007FA008316A00083126E088316A100AE238A1105
:10080A000A12013083120313F000162C01308316EA
:10081A00C302031CC402031CC502031CC602E52B47
:04082A00F0010800D1
:10082E00831603134108F000F00CF013F00CF013D4
:10083E00F00CF013F00CF0130A30F40067230F30B5
:0C084E0083164105F1007108F007080056
:08085A008316031311150800B9
:10086200831203138C11230893002E088316C100F0
:1008720083122F088316C200831230088316C30026
:10088200831231088316C4008316141D752C83123B
:100892002E082F04300431040319742C83164108E6
:1008A200420443044404031D6B2C83126F0884002A
:1008B20004308000840A6D088316A00083126E083B
:1008C2008316A100AE238A110A1201308312031388
:1008D200F000BC2C01308316C102031CC202031CAF
:1008E200C302031CC402452C83122E088316C100C6
:1008F20083122F088316C200831230088316C300A6
:10090200831231088316C40083128C19B42C2E086A
:100912002F04300431040319B32C83164108420416
:1009220043044404031DAA2C83126F08840004307C
:100932008000840A6D088316A00083126E08831655
:10094200A100AE238A110A12013083120313F000B0
:10095200BC2C01308316C102031CC202031CC30259
:10096200031CC402852C8316111BB92CF001BC2C6C
:0809720011150230F00008002D
:10097A000A3083120313F40083164108F00032236D
:10098A0070088316C20030307007D3009720831690
:10099A004208F0000A30F400672370088316410207
:1009AA00F0007008C20030307007D30097200800AA
:1009BA00831203132E088316C20083122F0883168C
:1009CA00C300831230088316C400831231088316C9
:1009DA00C50083128C118316911583128C191E2D52
:1009EA002E082F043004310403191D2D83164208E2
:1009FA00430444044504031D132D83126F08840025
:100A0A0003308000840A6D088316A00083126E08E2
:100A1A008316A100AE238A110A121E2D01308316F5
:100A2A000313C202031CC302031CC402031CC50233
:100A3A00F22C0313831213088316C10083122208AF
:100A4A00003A031D2B2D831691162D2D8316911214
:100A5A0083128C118316111683122E088316C20074
:100A6A0083122F088316C300831230088316C4002A
:100A7A00831231088316C50083128C196D2D2E0836
:100A8A002F043004310403196C2D831642084304E1
:100A9A0044044504031D622D83126F088400033049
:100AAA008000840A6D088316A00083126E088316DC
:100ABA00A100AE238A110A126D2D01308316031389
:100ACA00C202031CC302031CC402031CC502412D3B
:0A0ADA00831603134108F000080022
:100AE400DC3083160313C7000530C800FA30C90090
:100AF400CA015422C13083160313C7000C30C80046
:0A0B040043237008C7008023080097
:100B0E0083160313C301972370080319B52D83169B
:100B1E004308C13EC400492283164408840070086D
:100B2E0080004308C13E840000082F3C0318B32DFB
:100B3E004308C13E84003A3000020318B32D430827
:100B4E00C13E84000008D30097208316C30A4308D1
:100B5E00023A031DB32DB62D8312A4018A2D303017
:100B6E0083164102F0000A30F400672330308316FA
:0A0B7E004202F1007108F0070800C0
:100B880083160313C0013F08093C0318E82D0A30F7
:100B9800F4003F08F000322370088316C000700884
:100BA800C000C00D4010C00D4010C00D4010C00D59
:100BB80040100A30F4003F08F00032237808F000B3
:100BC80070088316C004EA2D3F08C0004008F000F2
:020BD800080013
:100BDA00B523D03083120313A300312483160313E1
:100BEA003F088312A300312483160313400883129B
:080BFA00A30031242D240800A2
:100C0200831603133F0884000008C100BD243A3054
:100C12008316D300972083163F0A84000008C10080
:100C2200BD243A308316D3009720023083163F0743
:0A0C320084000008C100BD24080082
:100C3C00831203132508003A031D512EB523D0301F
:100C4C0083120313A300312483120313A301312451
:100C5C00B523D13083120313A30031240130831246
:100C6C000313A200DD247008C1001724700883123E
:100C7C00DA000130A200DD247008C10017247008CE
:100C8C008312D900A201DD247008C100172470085A
:080C9C008312D8002D2408008A
:100CA4002F3083160313C7000D30C8004323700888
:100CB400C700802387257008C0007008173C0318FC
:100CC400672E7225FF30F000912E3F088400400803
:100CD40080003A30D300972087257008C000700840
:100CE4003B3C0318792E7225FF30F000912E3F0A09
:100CF4008400400880003A30D3009720872570088C
:100D0400C00070083B3C03188B2E7225FF30F000A6
:100D1400912E02303F07840040088000F001080053
:100D2400831603178C1C982E0000922E03133F0881
:100D3400831203178D0083160313400883120317CD
:100D44008C0083168C130C150B08F0008B13553094
:100D54008D00AA308D008C14F01BB22E8B13B32E91
:060D64008B170C110800C2
:100D6A0083160313360884000008F900FA01FB0110
:100D7A00FC010030FA00FB00FC00360A840000087F
:100D8A00B700B801B901BA010030B800B900BA0019
:100D9A000230360784000008BB00BC01BD01BE0159
:100DAA000030BC00BD00BE007A08F8007908F700E0
:100DBA00F501F6013908F3003808F2003708F100A6
:100DCA00F0017508F0047608F1047708F20478084F
:100DDA00F3043B08F0043C08F1043D08F2043E0821
:040DEA00F304080006
:100DEE00223083160313C7000D30C800432370084A
:100DFE00C7008023B630BF0052267008003A031D8C
:100E0E00252F0330BF003608C0009226043003138E
:100E1E00BF003708C000922605300313BF00380804
:100E2E00C0009226031336088312A60083163708D5
:0E0E3E008312A700831638088312A80008004C
:100E4C00143083160313C7000D30C80043237008F9
:100E5C00C7008023FA30C7000730C800432370084E
:100E6C00C70080232930BF00012622308316C7001B
:100E7C000D30C80043237008C7008023FA30C70028
:100E8C000730C80043237008C70080232630BF00FA
:100E9C00012605308316C7000D30C80043237008A7
:100EAC00C7008023FA30C7000730C80043237008FE
:100EBC00C70080231E26583083160313BF0001265B
:020ECC0008001C
:0C0ECE0083120313AD01AC019001080079
:100EDA008316031336088312D60083163708F100E7
:100EEA000130F000710803197E2FF00D7010FF3EDB
:100EFA00782F70088312D700F0097008D500803067
:100F0A0083163607840070088005841370088005EC
:020F1A000800CD
:100F1C009E3083120313DE000330DF000030E0004C
:100F2C000030B530DB000330DC000030DD00003079
:100F3C00FF30E100FF30E2000030E3000030DD3034
:100F4C00E7000430E8002230E90000303130E400E2
:100F5C000430E5002330E60000302D30EA00043088
:100F6C00EB000030EC0000308316141394130716BA
:0A0F7C008715383083129400080036
:100F860083160313981690308312980083168717DA
:100F9600071383128C1ED22F1A08F000CC2F0800DC
:100FA60083120313AD01AC01313090000C100B30ED
:0C0FB6008F00DC308E0083160C14080045
:100FC200831603133608831203178D0083168C13BE
:0A0FD2000C1483120C08F000080054
:100FDC0050208A110A128000840AA00A0319A10A5F
:080FEC00F003031DEE2F0800C5
:10100000143083160313C7000D30C8008A11432320
:101010008A157008C7008A1180238A15B630BF0070
:101020008A1152268A157008003A031D3928BF011B
:101030003608C0008A1192268A1501300313BF00BA
:101040003708C0008A1192268A1502300313BF00A8
:101050003808C0008A1192268A15031336088312B5
:10106000A900831637088312AA0083163808831252
:04107000AB000800C9
:1010740083160313B6013E30C7000C30C8008A1132
:1010840043238A157008C7008A1180238A150C30FF
:10109400C7000C30C8008A1143238A157008C700A2
:1010A4008A1180238A155530C7000C30C8008A1174
:1010B40043238A157008C7008A1180238A156C306F
:1010C400C7000C30C8008A1143238A157008C70072
:1010D4008A1180238A159730C7000C30C8008A1102
:1010E40043238A157008C7008A1180238A15F230B9
:1010F400C7000B30C8008A1143238A157008C70043
:101104008A1180238A15F630C7000C30C8008A1172
:1011140043238A157008C7008A1180238A153B303F
:10112400C7000D30C8008A1143238A157008C70010
:101134008A1180238A15E530C7000C30C8008A1153
:1011440043238A157008C7008A1180238A158A11DF
:1011540097238A1570080319C8288A1149228A1509
:1011640070088316B6007008303C0318C82837305E
:1011740036020318C8283608D3008A1197208A1526
:10118400A401303083163602F000C928A9280800CB
:10119400013083120313A50005308316C7000D30F8
:1011A400C8008A1143238A157008C7008A11802356
:1011B4008A15B630BF008A1152268A157008003A83
:1011C400031D3429BF018030C0008A11ED258A1522
:1011D4003708BF008A11C4258A157008C000013081
:1011E400BF008A11ED258A153608BF008A11C4256F
:1011F4008A157008C0000230BF008A11ED258A15D7
:101204000430BF000130C0008A11ED258A15053075
:10121400BF000130C0008A11ED258A150630BF00D9
:101224001530C0008A11ED258A150730BF00C001B2
:101234008A11ED258A153808BF008A11C4258A153C
:101244007F307005C000BF018A11ED258A1538086A
:101254008312DA00831637088312D90083163608FE
:0A1264008312D8008312A5010800D0
:10126E00AC3083160313C7000C30C8008A11432319
:10127E008A157008C7008A1180238A158230C7002C
:10128E000C30C8008A1143238A157008C7008A11D2
:10129E0080238A15D730C7000B30C8008A1143232C
:1012AE008A157008C7008A1180238A15A130C700DD
:1012BE000B30C8008A1143238A157008C7008A11A3
:0612CE0080238A150800D0
:1012D40083160313B6018A11E1278A1570080313D4
:1012E400A90001308316B6008A11E1278A15700817
:1012F4000313AA0002308316B6008A11E1278A1567
:1013040070080313AB0003308316B6008A11E1277B
:101314008A1570080313A60004308316B6008A11D8
:10132400E1278A1570080313A70005308316B60059
:0E1334008A11E1278A1570080313A80008002B
:101342008A11D3278A153A20831203137008831651
:10135200A700CA29CA20E3290020E3298A11F72617
:101362008A15E3298A1126278A15E3293721E329D9
:101372000D30D3008A1197208A150A308316D300C4
:101382008A1197208A158A1167278A15FE308605E9
:10139200F12983162708013A0319AB292708023AD3
:1013A2000319AD292708033A0319AF292708043A7C
:1013B2000319B3292708053A0319B7292708063A5A
:1013C2000319B929831603130D30D3008A1197200C
:1013D2008A150A308316D3008A1197208A15A42908
:0213E200080001
:1013E400831603138601831286019F018316031754
:1013F400880189010313950183129701031787015B
:101404008801E0308B003D308100073083160313E0
:1014140081001930990018158A11C3278A150A30DA
:10142400831693008A118E278A1506308316B60018
:0C1434000130B7008A116D278A150800EE
:10144000293083160313B6008A11B5268A15700851
:10145000AA007108AB007208AC007308AD0026301A
:10146000B6008A11B5268A157008AE007108AF0063
:101470007208B0007308B1005830B6008A11B52662
:101480008A157008B2007108B3007208B4007308BE
:10149000B50031082D06031D572A30082C06031D00
:1014A000572A2F082B06031D572A2E082A06031D2C
:1014B0005C2AFF30F000E22A31082D02031D6A2A5F
:1014C00030082C02031D6A2A2F082B02031D6A2AEA
:1014D0002E082A020318932A2D083502031D7A2AA2
:1014E0002C083402031D7A2A2B083302031D7A2AA2
:1014F0002A083202031C8E2A31083502031D8A2A6B
:1015000030083402031D8A2A2F083302031D8A2A59
:101510002E08320203188E2AA701902AFF30A70056
:101520002708F000E22A0030F0003106031DA22A4D
:1015300070083006031DA22A70082F06031DA22A78
:101540002E08003A031DBB2A2D083502031DB22ABE
:101550002C083402031DB22A2B083302031DB22AC1
:101560002A0832020318B72AFF30A800B82AA801B7
:101570002808F000E22A2D083502031DC92A2C088C
:101580003402031DC92A2B083302031DC92A2A0865
:1015900032020318DC2A31083502031DD92A30082B
:1015A0003402031DD92A2F083302031DD92A2E081D
:1015B0003202031CDC2ADE2AA901E02AFF30A9003E
:0615C0002908F0000800FC
:1015C600482583160313A601F2216A21A501A40169
:1015D600B201B401AD01AC01E8308316C700033097
:1015E600C800FA30C900CA018A1154228A1582300D
:1015F60083120313FC00DD30FD00FD0B002BFC0BFA
:10160600002B00000000E2308316C7000430C8003B
:10161600FA30C900CA018A1154228A158A11972301
:101626008A1570080319412B8A1149228A157008F8
:101636008316A6007008203A0319262B26080D3AB1
:101646000319262B282BA121412BBC308316C7005A
:101656000B30C8008A1143238A157008C7008A1107
:1016660080238A152530C7000C30C8008A11432311
:101676008A157008C7008A1180238A1583123408D8
:10168600FF3A031D9A2BB4018A111E268A152022C1
:101696007008A5007008831233060319792BE83009
:1016A6008316C7000330C8009630C900CA018A11E4
:1016B60054228A15623083120313FC006530FD0044
:1016C600FD0B632BFC0B632B00000000E23083163E
:1016D600C7000430C8009630C900CA018A115422D6
:1016E6008A158316031325088312B300831625086B
:1016F600FF3A031D802BA401822B0130A400FA308F
:1017060083120605F20083162408F100F10D71100C
:10171600F10D711024080130031D0030F000013076
:10172600F0057108F0047008720483128600112B0C
:021736009B2BEB
:101A900024308400113083120313F000D4308316F5
:0E1AA000A0000C30A1008A11EE278A15080064
:060FF4003A342034003401
:101742000D340A34563465347234733469346F3468
:101752006E34203431342E34303420342D3420345D
:1017620032343034313438342D34313431342D3450
:061772003234353400346E
:101778000D340A345034723465347334733420347D
:101788005B34533450344134433445345D3420346D
:101798006F34723420345B3445344E345434453419
:0617A80052345D340034F0
:1017AE000D340A346A346134793461346B346F34F5
:1017BE006434793432343034303430346C346B3405
:1017CE00403467346D34613469346C342E34633490
:0617DE006F346D3400348D
:1017E4000D340A34203434342E3429342034533420
:1017F40068346F347734203463346F346E34663431
:1018040069346734753472346134743469346F34D0
:041814006E340034FA
:101818000D340A343D343D343D343D343D343D349B
:101828003D343D343D343D343D343D343D343D3428
:101838003D343D343D343D343D343D340D340A347B
:0218480000346A
:10184A00203474346F3420346F34703465346E3419
:10185A002034733465347434743469346E346734C0
:10186A00733420346D3465346E3475340D340A346F
:02187A00003438
:10187C000D340A34533479347334743465346D3420
:10188C00203463346F346E346634693467347534A1
:0E189C0072346134743469346F346E34003445
:1018AA000D340A34203431342E342934203453345C
:1018BA00653474342034733479347334743465344D
:0E18CA006D342034743469346D346534003468
:1018D8000D340A34203432342E342934203453342D
:1018E8006534743420347334743461347234743429
:0C18F8002034743469346D3465340034DD
:101904000D340A34443469346C34733468346134C7
:101914006E342034523420344A346134793461349E
:0A1924006B346F34643479340034FE
:10192E000D340A34203433342E34293420345334D5
:10193E00653474342034733474346F34703420341A
:0A194E00743469346D3465340034DC
:101958000D340A344134753474346F346D34613461
:1019680074346934633420344C344534443420347A
:0A1978004C3461346D3470340034D7
:101982000D340A3449346E34763461346C3469343B
:101992006434203469346E347034753474342134D0
:0619A2000D340A3400348C
:0219A800003409
:0219AA00003407
:0619AC0000340034003499
:0619B20000340034003493
:0219B8000034F9
:0219BA000034F7
:0819BC00003400340034003453
:0219C4000034ED
:0219C600FF34EC
:0219C8000034E9
:1019CA000D340A340D340A34533465346C346534B6
:1019DA006334743469346F346E3420343E342034C2
:0219EA000034C7
:1019EC000D340A34203435342E3429342034563412
:0E19FC0065347234733469346F346E340034E1
:101A0A000D340A34533479347334743465346D3490
:0E1A1A002034743469346D3465342034003463
:101A28000D340A34533474346134723474342034C9
:0C1A3800743469346D346534203400349B
:101A44000D340A34533474346F34703420347434A1
:0A1A540069346D3465342034003429
:101A5E00483448343A344D344D343A345334533494
:081A6E0020343E342034003422
:101A76000D340A34203436342E3429342034453497
:081A8600783469347434003433
:04400E00642400071F
:00000001FF
